:100000000EC015C014C013C012C011C010C00FC064
:100010000EC00DC00CC00BC00AC009C008C011241E
:100020001FBECFE5D2E0DEBFCDBF25D053C0E8CFA5
:1000300088E088BB8FEC97E00197F1F700C00000E3
:1000400018BA8FEC97E00197F1F700C0000008950F
:10005000019709F4EDCF18BA8FEC97E00197F1F70B
:1000600000C0000088E088BB8FEC97E00197F1F7B3
:1000700000C00000089588E087BB18E0C8E0D0E029
:10008000D7DF2197E9F780E090E0E2DF80E090E0C1
:10009000DFDF80E090E0DCDF80E090E0D9DF80E02F
:1000A00090E0D6DFC5DF80E090E0D2DFC1DF80E006
:1000B00090E0CEDF80E090E0CBDFBADFB9DF18BBA5
:1000C0002FEF84E39CE0215080409040E1F700C096
:0800D0000000D4CFF894FFCF2B
:00000001FF
